:020000040800F2
:10000000800600202902000831020008330200089F
:10001000350200083702000839020008000000001D
:100020000000000000000000000000003B0200088B
:100030003D020008000000003F020008CD05000856
:10004000430200084302000843020008430200087C
:10005000430200084302000843020008430200086C
:10006000430200084302000843020008430200085C
:10007000430200084302000843020008430200084C
:10008000430200084302000843020008430200083C
:10009000430200084302000843020008430200082C
:1000A000430200084302000843020008430200081C
:1000B000430200084302000843020008430200080C
:1000C00043020008430200084302000843020008FC
:1000D00043020008430200084302000843020008EC
:1000E00043020008430200084302000843020008DC
:1000F00043020008430200084302000843020008CC
:1001000000000000000000000000000043020008A2
:1001100043020008430200084302000843020008AB
:10012000430200084302000843020008430200089B
:100130004302000843020008000000000000000025
:1001400043020008430200084302000800000000C8
:10015000000000000000000000000000000000009F
:1001600000000000000000004302000843020008F5
:100170004302000800000000000000000000000032
:10018000000000004302000800F002F800F03CF814
:100190000AA090E8000C82448344AAF10107DA45E2
:1001A00001D100F031F8AFF2090EBAE80F0013F0F8
:1001B000010F18BFFB1A43F001031847C4040000E5
:1001C000E4040000103A24BF78C878C1FAD8520776
:1001D00024BF30C830C144BF04680C6070470000C1
:1001E0000023002400250026103A28BF78C1FBD840
:1001F000520728BF30C148BF0B6070471FB500F0E1
:100200003AFA1FBD10B510BD00F0FFF91146FFF717
:10021000F5FF00F01FF900F01DFA03B4FFF7F2FF3D
:1002200003BC00F021FA0000094880470948004754
:10023000FEE7FEE7FEE7FEE7FEE7FEE7FEE7FEE796
:10024000FEE7FEE704480549054A064B70470000F3
:100250002303000889010008800000208006002098
:1002600080020020800200200CB500200190009048
:100270006A48006840F4A0206849086000BF6748E9
:10028000006800F4003000900198401C0190009834
:1002900018B90198B0F5A06FF1D16048006810F46A
:1002A000003F02D00120009001E000200090009863
:1002B000012835D112205A490860584840685749EA
:1002C00048600846406848600846406840F48060DE
:1002D00048600846406820F47C1048600846406842
:1002E00040F4E81048600846006840F080700860FC
:1002F00000BF4A48006810F0007FFAD047484068C5
:1003000020F00300454948600846406840F002007C
:10031000486000BF4148406800F00C000828F9D14F
:100320000CBD10B53F48006840F470003D490860BE
:100330003A48006840F001003849086008464068C3
:10034000394908403549486008460068374908403F
:10035000324908600846006820F48020086008469A
:10036000406820F4FE0048600846C06A20F00F0094
:10037000C8620846006B2E490840284908630020DF
:100380008860FFF771FF4FF00060264980390860F0
:1003900010BD30B500210020002200231F4C6468EE
:1003A00004F00C0121B1042906D0082925D107E069
:1003B000204C214D2C6024E01E4C1F4D2C6020E071
:1003C000164C646804F47010144C646804F48032B1
:1003D000022404EB904022B9184C4443164D2C6083
:1003E0000AE00E4CE46A04F00F04631C114CB4FBE9
:1003F000F3F44443104D2C6003E00E4C0E4D2C6082
:1004000000BF00BF054C6468C4F303140C4D295DA4
:10041000094C2468CC40084D2C6030BD00100240CF
:100420000020024088ED00E00CC07FF8FFFFF6FEE0
:10043000CCFC00FF00127A000000002000093D0003
:10044000040000206449086000BF6349096800296E
:10045000FBD170476148C06A40F488705F49C86248
:100460000846406940F0805048615D4800685D4A38
:10047000B0FBF2F1481EB0F1807F01D301201BE0F8
:10048000481E4FF0E022506150170F22002807DA73
:1004900013071D0E544B00F00F04241F1D5503E0DD
:1004A00013071C0E514B1C5400BF00204FF0E022DC
:1004B000906107201061002008B100BFFEE74748A7
:1004C000406940F40020454948614948006840F0CF
:1004D0000C00474908604FF0A040806820F0405071
:1004E0004FF0A04188600846806840F080508860E6
:1004F0000A20FFF7A7FF4FF0A040806820F080405F
:100500004FF0A04188600846806840F00040886055
:1005100000BF4FF0A040806810F0004FF9D135487F
:100520000068354908804FF0A040C06840F4005092
:100530004FF0A041C8600846C06820F01800C860AD
:100540000846C06820F02000C8600846006B40F4F0
:10055000E07008630846006B20F00F00086308464F
:10056000406940F4C00048610846806840F00100DE
:10057000886000BF4FF0A040006808B9012000E08B
:10058000002010F0010FF5D14FF0A040806840F03E
:1005900004004FF0A041886017E000BF4FF0A0407A
:1005A000006810F0040FF9D04FF0A040006C134920
:1005B0000880098840F6E44201FB02F0C11700EB15
:1005C0001151C1F30F310E4A1180E6E7024800686D
:1005D000401E0149086070471C00002000100240C6
:1005E0000000002040420F0018ED00E000E400E0B1
:1005F00000080048B400005018000020140000203B
:1006000016000020704770477047754600F028F8C4
:10061000AE4605006946534620F00700854618B0EF
:1006200020B5FFF70FFEBDE820404FF000064FF069
:1006300000074FF000084FF0000B21F00701AC4617
:10064000ACE8C009ACE8C009ACE8C009ACE8C00936
:100650008D4670470446AFF300802046FFF7DDFD6E
:10066000004870472000002001491820ABBEFEE77B
:100670002600020070474FF04070E1EE100A70470C
:10068000A00600080000002020000000C4010008AF
:10069000C00600082000002060060000E0010008FD
:1006A00000A24A0400000000000000000102030450
:1006B000060708090000000000000000000000001C
:040000050800018965
:00000001FF
