:020000040800F2
:10000000A806002029020008310200083302000877
:10001000350200083702000839020008000000001D
:100020000000000000000000000000003B0200088B
:100030003D020008000000003F020008110900080E
:10004000430200084302000843020008430200087C
:10005000430200084302000843020008430200086C
:10006000430200084302000843020008430200085C
:10007000430200084302000843020008430200084C
:10008000430200084302000843020008430200083C
:10009000430200084302000843020008430200082C
:1000A000430200084302000843020008430200081C
:1000B000430200084302000843020008430200080C
:1000C00043020008430200084302000843020008FC
:1000D00043020008430200084302000843020008EC
:1000E00043020008430200084302000843020008DC
:1000F00043020008430200084302000843020008CC
:1001000000000000000000000000000043020008A2
:1001100043020008430200084302000843020008AB
:10012000430200084302000843020008430200089B
:100130004302000843020008000000000000000025
:1001400043020008430200084302000800000000C8
:10015000000000000000000000000000000000009F
:1001600000000000000000004302000843020008F5
:100170004302000800000000000000000000000032
:10018000000000004302000800F002F800F03CF814
:100190000AA090E8000C82448344AAF10107DA45E2
:1001A00001D100F031F8AFF2090EBAE80F0013F0F8
:1001B000010F18BFFB1A43F001031847E00F0000BE
:1001C00000100000103A24BF78C878C1FAD852074E
:1001D00024BF30C830C144BF04680C6070470000C1
:1001E0000023002400250026103A28BF78C1FBD840
:1001F000520728BF30C148BF0B6070471FB500F0E1
:10020000C2FF1FBD10B510BD00F093FB1146FFF7F4
:10021000F5FF00F014FA00F0B1FB03B4FFF7F2FFB2
:1002200003BC00F0B5FB00000948804709480047BF
:10023000FEE7FEE7FEE7FEE7FEE7FEE7FEE7FEE796
:10024000FEE7FEE704480549054A064B70470000F3
:100250002303000889010008A8000020A806002048
:10026000A8020020A80200200CB5002001900090F8
:100270006A48006840F4A0206849086000BF6748E9
:10028000006800F4003000900198401C0190009834
:1002900018B90198B0F5A06FF1D16048006810F46A
:1002A000003F02D00120009001E000200090009863
:1002B000012835D112205A490860584840685749EA
:1002C00048600846406848600846406840F48060DE
:1002D00048600846406820F47C1048600846406842
:1002E00040F4E81048600846006840F080700860FC
:1002F00000BF4A48006810F0007FFAD047484068C5
:1003000020F00300454948600846406840F002007C
:10031000486000BF4148406800F00C000828F9D14F
:100320000CBD10B53F48006840F470003D490860BE
:100330003A48006840F001003849086008464068C3
:10034000394908403549486008460068374908403F
:10035000324908600846006820F48020086008469A
:10036000406820F4FE0048600846C06A20F00F0094
:10037000C8620846006B2E490840284908630020DF
:100380008860FFF771FF4FF00060264980390860F0
:1003900010BD30B500210020002200231F4C6468EE
:1003A00004F00C0121B1042906D0082925D107E069
:1003B000204C214D2C6024E01E4C1F4D2C6020E071
:1003C000164C646804F47010144C646804F48032B1
:1003D000022404EB904022B9184C4443164D2C6083
:1003E0000AE00E4CE46A04F00F04631C114CB4FBE9
:1003F000F3F44443104D2C6003E00E4C0E4D2C6082
:1004000000BF00BF054C6468C4F303140C4D295DA4
:10041000094C2468CC40084D2C6030BD00100240CF
:100420000020024088ED00E00CC07FF8FFFFF6FEE0
:10043000CCFC00FF00127A000000002000093D0003
:100440000400002000BF4FF0A040006810F0040F2F
:10045000F9D04FF0A040006CFE49088008460088A3
:1004600040F6E441484340F6FF7190FBF1F0FA4951
:1004700008807047F948406940F40020F749486116
:100480000846C06940F00200C861F548006840F4C1
:100490000030F34908600846406A40F00201F04825
:1004A00041620020EF490880EE491431086040F6AF
:1004B000A110EC49091D0860EA480C38006840F0BA
:1004C0006000E8490C390860081D006840F480703D
:1004D000091D0860E3482838008840F00100E14920
:1004E000283908807047E049086000BFDE49096884
:1004F0000029FBD1704730B5D848C06A40F48870F5
:10050000D649C8620846406940F080504861D748E3
:100510000068D74AB0FBF2F1481EB0F1807F01D3EA
:1005200001201BE0481E4FF0E022506150170F22BF
:10053000002807DA13071D0ECE4B00F00F04241F0E
:100540001D5503E013071C0ECB4B1C5400BF0020AD
:100550004FF0E022906107201061002008B100BF39
:10056000FEE7BE48406940F40020BC494861BC48F1
:10057000006840F00C00BA4908604FF0A040806865
:1005800020F040504FF0A04188600846806840F05D
:10059000805088600A20FFF7A6FF4FF0A0408068D7
:1005A00020F080404FF0A04188600846806840F00D
:1005B0000040886000BF4FF0A040806810F0004FFE
:1005C000F9D1AE480068AE4908804FF0A040C0683D
:1005D00040F400504FF0A041C8600846C06820F0C9
:1005E0001800C8600846C06820F02000C8600846AF
:1005F000006B40F4E07008630846006B20F00F00C9
:1006000008630846406940F4C000486108468068B5
:1006100040F00100886000BF4FF0A040006808B9BA
:10062000012000E0002010F0010FF5D14FF0A040B4
:10063000806840F004004FF0A041886030BD2DED8F
:100640000C8BFFF758FFFFF715FF60E1FFF7FAFE8D
:100650008148008840F6340188427ADD7E4800886F
:1006600040F65431884274DA0020864908607A489E
:10067000008800F0AAFA41EC100BB0EE40AAF0EEB0
:1006800060AA9FED810B53EC102B51EC1A0B00F07C
:10069000EBFA41EC100BB0EE409AF0EE609A9FED51
:1006A0007C0B53EC102B51EC190B00F0ABF941EC27
:1006B000100BB0EE408AF0EE608A51EC180B00F09F
:1006C0006FF975490860084690ED000A7348D0ED4F
:1006D000000A30EE600A724880ED000A7148006836
:1006E00000F0E0FC41EC100BB0EE40BAF0EE60BA66
:1006F0009FED6D0B53EC102B51EC1B0B00F0B4FA7B
:1007000041EC100BB0EE409AF0EE609A6848006839
:1007100000F0C8FC41EC100BB0EE40DAF0EE60DA0D
:100720009FED640B53EC102B51EC1D0B00F09CFA69
:1007300041EC100BB0EE40BAF0EE60BA58480068D9
:1007400000F0B0FC41EC100BB0EE40DAF0EE60DAF5
:1007500000E0D6E09FED590B53EC102B51EC1D0B34
:1007600000F082FA41EC100BB0EE40CAF0EE60CA25
:1007700053EC1B2B51EC1C0B00F0AAFB41EC100BB3
:10078000B0EE40AAF0EE60AA53EC192B51EC1A0B14
:1007900000F09EFB41EC100BB0EE408AF0EE608A58
:1007A00051EC180B00F0FCF846490860084690ED43
:1007B000000A3C4880ED000A394890ED000A3C48A8
:1007C00080ED000A084690ED000AB5EEC00AF1EE91
:1007D00010FA04D8002023491431086097E0394802
:1007E000006800F05FFC41EC100BB0EE408AF0EEC8
:1007F000608A9FED350B53EC102B51EC180B00F079
:1008000031FB05D24FF480601649143108607EE058
:100810002C48006800F046FC41EC100BB0EE40AAFA
:10082000F0EE60AA9FED2A0B53EC102B51EC1A0B43
:1008300000F01AFA41EC100BB0EE409AF0EE609A1C
:100840009FED250B53EC102B51EC190B00F0DAF84F
:1008500046E00000140000201600002000100240B6
:1008600000080048280400401C0000200000002070
:1008700040420F0018ED00E000E400E0B40000503A
:1008800018000020200000207E74EACA67794EBF5D
:10089000355EBA490C0205402C00002028000020DB
:1008A00030000020380000205B423EE8D9ACDA3F3F
:1008B0003C000020355EBA490C020140CDCCCCCCC6
:1008C000CC3C704034000020000000000000E03FFD
:1008D00000000000002BA240C1CAA145B6EB584061
:1008E00041EC100BB0EE408AF0EE608A51EC180B30
:1008F00000F03CF9094908600846006808490860AA
:1009000005E00120074908600020054908609DE6D0
:1009100005480068401E04490860704740000020F8
:100920003C040040200000201C000020704770475D
:100930007047754600F028F8AE46050069465346F4
:1009400020F00700854618B020B5FFF77BFCBDE816
:1009500020404FF000064FF000074FF000084FF026
:10096000000B21F00701AC46ACE8C009ACE8C009B7
:10097000ACE8C009ACE8C0098D4670470446AFF347
:1009800000802046FFF749FC0048704744000020E3
:1009900001491820ABBEFEE72600020070470000A8
:1009A00021F00042A2F16052B2F5801F01F0004335
:1009B00028BFD2F17F6C0BD95FEA001C43EAC20268
:1009C00042EB507018BF704728BF20F001007047FD
:1009D000B2F5801FBCBF184670474FEA410C1CF5AA
:1009E000001F02D2084600F0D3BB70B500F0E6F954
:1009F00000000089FFF7F6BF4FF00040A0F580002F
:100A00007047000010B591EA030F48BF83F0004320
:100A100000F16682841A71EB030C05D2121943EBC4
:100A20000C03001B61EB0C01DFF824E14FEA1154C9
:100A3000A4EB135C1EEA430F18BF9EEA445F73D019
:100A400023EA0E03DCF1200E21EA045143F4801363
:100A500032D322FA0CFE10EB0E0023FA0CFE41EB0F
:100A60000E01CCF1200E03FA0EFE10EB0E0051F138
:100A70000001B1F5801FCCF1200E32D201EB045100
:100A800012FA0EF2BDE8104058BF7047401C38BF44
:100A90005FEA420218BF7047002814BF20F001002F
:100AA00041F100014FEA410313F5001F38BF7047C1
:100AB000A1F1C04100F0D0B9012A43EB0302ACF12F
:100AC000200CDCF11F0E32BF4FF0000E23FA0CF3A6
:100AD00010EB030041EB0451B4EB115FD0D0A1EB5C
:100AE000045101F5801149085FEA300001EB04511F
:100AF0000ED350F1000038BF12FA0EFE08D1BDE847
:100B00001040C9E7401C38BF5FEA4202CAD1C3E7C0
:100B1000BDE810404FEA410313F5001F38BF70478E
:100B2000A1F1C04100F098B99EEA445F08D011EAF3
:100B30005E0FBDE8104004BF01F000410020704787
:100B4000BDE8104070B500F039F900BF64FBBE3E4F
:100B50000000E0FF491058BFC1F140415B1058BF91
:100B6000C3F140438B42EFF3008070474FEA4103EB
:100B70004FEA5353A3F58063D3F11E03C8BFD3F1EB
:100B8000210C0CDD4FF0004242EAC12242EA5052F1
:100B900032FA03FC8CEAE17CACEBE1707047102B7D
:100BA000C4BF0020704703F5787CBCF1FF3F04D040
:100BB0006FF0004282EA2100704770B500F0FEF845
:100BC0004992248000207047F2E7B0FA80F310FACF
:100BD00003F10AD0C3F11D0303F580634FEA4150CE
:100BE0004FEA035202EBD12170474FF000007047EB
:100BF00051EA030C17D41CF5801F58BFBCF5801FA9
:100C000000F10680994218BF704708BF90427047B4
:100C100007D711F5801F58BF13F5801F19D49942CB
:100C20007047894270471CF5801F08D5BCF5801FAE
:100C3000F7D58B4218BF704708BF824270474FF408
:100C4000001C1CEB410F38BF1CEB430F01D28B4241
:100C5000704770B500F0B2F8922449004FF000518F
:100C60004FF08053FFF776BFDFF848C170B51CEA3C
:100C7000111E1EBF1CEA13159EEA0C0F95EA0C0FFD
:100C800000F06F8081EA030423EA4C134EEAD47E1D
:100C900021EA4C1141F4801143F48013AE44A1FBCE
:100CA000024CA0FB0365AEF17F7E361955EB0C05B7
:100CB000A1FB034C4CF10003A0FB021C16EB0C063D
:100CC000654153F10003094218BF46F0010613F4D1
:100CD000007F0BD14FEA03314FEA0530340341EA7C
:100CE000155140EA16506FF003020AE04FEAC321A3
:100CF0004FEAC520F40241EA555140EA56506FF0E0
:100D0000020202EB2E4201EB025585EACE710AD0B7
:100D10005FEA440C18BF24F0004450F1000041F198
:100D2000000120EAD47040F2FE7C624500D270BD22
:100D3000A84214BF4FF080444FF04044002E08BF3B
:100D40000024BEF1806FA8BFA1F1C041BDE8704092
:100D500080F282804FF0000001F1C04101F00041BB
:100D600070479EEA0C0F0CEA131518BF95EA0C0F9A
:100D700006D04FF0000081EA030E0EF0004170BD76
:100D800000F01CF88900013E00F007B800F009B837
:100D90004FEA430C5FEA5C5C08D081EA030100F093
:100DA0005BB84FEA410C5FEA5C5CF6D14FF00000A3
:100DB000014970470000FF070000F87F0EF1020EA6
:100DC0002EF0030E5EF8046B364205D4012A43EB85
:100DD000030515F5001F12D8012841EB010C1CF585
:100DE000001F0CD80ED14FEAD17C15F5001F0CEB7B
:100DF0004C0C0CF1020C08BF4CEBD37C04E04FF020
:100E0000080C01E04FEAD37C0CEB4C0526FA05F602
:100E100006F00706B6F1040C06D20EEB860CBDE810
:100E200070404CF0010C6047DFE80CF0090B020247
:100E30004FF000414FF00000A1F5002170BD1946B0
:100E40001046012851EB010418BFD4F5001484BFEB
:100E5000002001F0004170BD0808A0F500114FEA24
:100E60003101704753EA010C17D41CF5801F58BF9D
:100E7000BCF5801F00F106808B4218BF704708BF89
:100E80008242704707D713F5801F58BF11F5801FA6
:100E900019D48B4270479B4270471CF5801F08D5C0
:100EA000BCF5801FF7D5994218BF704708BF904224
:100EB00070474FF4001C1CEB430F38BF1CEB410F75
:100EC00001D2994270470FB40CBC03BCFFF7C1BEFE
:100ED00010B591EA030F48BF83F000433FF59AAD88
:100EE000841A71EB030C07D212198CF0004C43EBFF
:100EF0000C03001B61EB0C01DFF8A4E14FEA115475
:100F0000A4EB135C1EEA430F18BF9EEA445F00F097
:100F1000B08023EA6E03524221EA0451C3EB6E0310
:100F200038BF5B1EDCF1200E25D322FA0CFE10EB3D
:100F30000E0043FA0CFE41EB0E01CCF1200E03FA39
:100F40000EFE10EB0E0051F10001CCF1200E29D461
:100F500012FA0EF201EB0451BDE8104058BF704781
:100F6000401C1CBFB2F1004F704700280CBF491C49
:100F700020F00100704712EB020E43EB030218BF92
:100F80004FF0010E4EEA4202ACF1200CDCF11E0ED5
:100F900054D943FA0CFE10EB0E0051F1FF31CCF1A5
:100FA0001E0ED5D50EF1010E12FA0EFE404141EB98
:100FB000010101EB445C5FEA5C5C10D910EBDE7070
:100FC00001EB045138BFBEF1004FBDE8104018BF1F
:100FD000704700280CBF491C20F00100704730D238
:100FE0004FEAD42C11F5001124F400641BD0B1FA9F
:100FF00081F20B3AA41AA41ED2F12003914030FAD8
:1010000003F31943904001EBCC71002C01EB045128
:10101000BDE81040A8BF704701F1C0414FF000008B
:1010200001F000417047B0FA80F310FA03F100D1EB
:1010300010BDE41A173C4805C90AE4E701EB045166
:1010400010BD491001EB0451BDE810404FEA3000DB
:1010500002E04FF0000170474A0008BF0042F8D09C
:10106000B2F5001F28BF704701F000414FF00000AB
:1010700070479EEA445F07D011EA5E0FBDE810405A
:1010800004BF002100207047BDE8104070B5FFF795
:1010900095FE00BF40DFF63E83F0004110467047EA
:1010A0000000E0FF43004FEAD30C4FEA3C0C434002
:1010B0001FBF40070CF1605113F0FE4F70471CF04A
:1010C000006F03D100200CF0004170470CF000438A
:1010D00043EA507010B540EACC0000F00EF800BFB3
:1010E000000000924FEA0001FFF7B6BE4FF000414A
:1010F0004FF00000A1F5002170470EF1020E2EF016
:10110000030E5EF8044B244204D44FEA4102B2F1CC
:101110007F4F11D84FEA4003B3F17F4F0CD80ED167
:101120004FEAD07CB2F17F4F0CEB4C0C0CF1020C6F
:1011300008BF4CEBD17C04E04FF0080C01E04FEA13
:10114000D17C0CEB4C0324FA03F404F00704B4F153
:10115000040C06D20EEB840CBDE810404CF0010CE0
:101160006047DFE80CF0070802024FF00040A0F5EE
:10117000800010BD0846420018BFD2F1807288BFBF
:1011800000F0004010BD4FF04070E1EE100A7047D3
:10119000FF2141EAD050C00570470000BC11000893
:1011A0000000002044000000C401000800120008F4
:1011B0004400002064060000E001000800A24A0488
:1011C00000000000000000000102030406070809F7
:1011D000000000000000000000000000000000000F
:1011E00000000000295C0F3E00000000000000002D
:1011F00000000000000000000000000000000000EF
:040000050800018965
:00000001FF
