:020000040800F2
:1000000078060020290200083102000833020008A7
:10001000350200083702000839020008000000001D
:100020000000000000000000000000003B0200088B
:100030003D020008000000003F02000841020008E5
:10004000430200084302000843020008430200087C
:10005000430200084302000843020008430200086C
:10006000430200084302000843020008430200085C
:10007000430200084302000843020008430200084C
:10008000430200084302000843020008430200083C
:10009000430200084302000843020008430200082C
:1000A000430200084302000843020008430200081C
:1000B000430200084302000843020008430200080C
:1000C00043020008430200084302000843020008FC
:1000D00043020008430200084302000843020008EC
:1000E00043020008430200084302000843020008DC
:1000F00043020008430200084302000843020008CC
:1001000000000000000000000000000043020008A2
:1001100043020008430200084302000843020008AB
:10012000430200084302000843020008430200089B
:100130004302000843020008000000000000000025
:1001400043020008430200084302000800000000C8
:10015000000000000000000000000000000000009F
:1001600000000000000000004302000843020008F5
:100170004302000800000000000000000000000032
:10018000000000004302000800F002F800F03CF814
:100190000AA090E8000C82448344AAF10107DA45E2
:1001A00001D100F031F8AFF2090EBAE80F0013F0F8
:1001B000010F18BFFB1A43F001031847A403000006
:1001C000C4030000103A24BF78C878C1FAD8520797
:1001D00024BF30C830C144BF04680C6070470000C1
:1001E0000023002400250026103A28BF78C1FBD840
:1001F000520728BF30C148BF0B6070471FB500F0E1
:10020000AAF91FBD10B510BD00F06FF91146FFF738
:10021000F5FF00F018F900F08DF903B4FFF7F2FFD5
:1002200003BC00F091F900000948804709480047E5
:10023000FEE7FEE7FEE7FEE7FEE7FEE7FEE7FEE796
:10024000FEE7FEE704480549054A064B70470000F3
:1002500023030008890100087800002078060020A8
:1002600078020020780200200CB500200190009058
:100270006A48006840F4A0206849086000BF6748E9
:10028000006800F4003000900198401C0190009834
:1002900018B90198B0F5A06FF1D16048006810F46A
:1002A000003F02D00120009001E000200090009863
:1002B000012835D112205A490860584840685749EA
:1002C00048600846406848600846406840F48060DE
:1002D00048600846406820F47C1048600846406842
:1002E00040F4E81048600846006840F080700860FC
:1002F00000BF4A48006810F0007FFAD047484068C5
:1003000020F00300454948600846406840F002007C
:10031000486000BF4148406800F00C000828F9D14F
:100320000CBD10B53F48006840F470003D490860BE
:100330003A48006840F001003849086008464068C3
:10034000394908403549486008460068374908403F
:10035000324908600846006820F48020086008469A
:10036000406820F4FE0048600846C06A20F00F0094
:10037000C8620846006B2E490840284908630020DF
:100380008860FFF771FF4FF00060264980390860F0
:1003900010BD30B500210020002200231F4C6468EE
:1003A00004F00C0121B1042906D0082925D107E069
:1003B000204C214D2C6024E01E4C1F4D2C6020E071
:1003C000164C646804F47010144C646804F48032B1
:1003D000022404EB904022B9184C4443164D2C6083
:1003E0000AE00E4CE46A04F00F04631C114CB4FBE9
:1003F000F3F44443104D2C6003E00E4C0E4D2C6082
:1004000000BF00BF054C6468C4F303140C4D295DA4
:10041000094C2468CC40084D2C6030BD00100240CF
:100420000020024088ED00E00CC07FF8FFFFF6FEE0
:10043000CCFC00FF00127A000000002000093D0003
:100440000400002070470FB520A41DCC8DE81D00CE
:1004500000212248406940F40020204A5061204891
:1004600000686FF30F0045F2555210441C4A1060AB
:10047000101D008820F0FF00121D1080101D006864
:100480006FF30F004FF6FF721044154A08321060E8
:10049000101D00686FF30F00121D106000BF0021D7
:1004A00010E00F481430008820F0FF001DF80120F4
:1004B00010430B4A143210804FF47A70FFF7C2FFDA
:1004C000481CC1B21029EADAEBE700008040201096
:1004D00008040201010204081020408000100240BC
:1004E00000080048704770477047754600F028F8CC
:1004F000AE4605006946534620F00700854618B011
:1005000020B5FFF79FFEBDE820404FF000064FF0FA
:1005100000074FF000084FF0000B21F00701AC4638
:10052000ACE8C009ACE8C009ACE8C009ACE8C00957
:100530008D4670470446AFF300802046FFF76DFEFE
:10054000004870471400002001491820ABBEFEE7A8
:100550002600020070474FF04070E1EE100A70472D
:10056000800500080000002014000000C4010008FD
:10057000940500081400002064060000E001000853
:1005800000A24A0400000000000000000102030471
:040590000607080949
:040000050800018965
:00000001FF
